:100000000C9462000C948A000C948A000C948A0070
:100010000C948A000C948A000C948A000C948A0038
:100020000C948A000C948A000C948A000C948A0028
:100030000C948A000C948A000C948A000C948A0018
:100040000C9492030C948A000C9402040C94DC032C
:100050000C948A000C948A000C948A000C948A00F8
:100060000C948A000C948A000000000023002600F3
:10007000290000000000240027002A0000000000E2
:10008000250028002B0004040404040404040202D4
:100090000202020203030303030301020408102007
:1000A0004080010204081020010204081020000012
:1000B0000008000201000003040700000000000027
:1000C0000000FE0511241FBECFEFD8E0DEBFCDBF7C
:1000D00011E0A0E0B1E0E0E2FFE002C005900D9287
:1000E000AA31B107D9F721E0AAE1B1E001C01D9220
:1000F000A43DB207E1F710E0C2E6D0E004C02197CA
:10010000FE010E948307C136D107C9F70E94790416
:100110000C948E070C94000090E0FC01E255FF4F18
:100120002491FC01E656FF4F3491FC01EA57FF4F42
:10013000E491EE2309F43CC0222339F1233091F0FD
:1001400038F42130A9F0223001F584B58F7D12C03A
:10015000273091F02830A1F02430B9F4809180004C
:100160008F7D03C0809180008F77809380000DC0C9
:1001700084B58F7784BD09C08091B0008F7703C0AC
:100180008091B0008F7D8093B000F0E0EE0FFF1FF4
:10019000E458FF4FA591B4919FB7F894611104C042
:1001A0008C913095382302C0EC913E2B3C939FBF3D
:1001B0000895CF93DF9390E0FC01E656FF4F249122
:1001C000FC01EA57FF4F8491882361F190E0880F8A
:1001D000991FFC01EE58FF4FC591D491FC01E458E2
:1001E000FF4FA591B491611109C09FB7F894888120
:1001F000209582238883EC912E230BC0623061F41A
:100200009FB7F8948881322F309583238883EC91AF
:100210002E2B2C939FBF06C08FB7F894E8812E2B0E
:1002200028838FBFDF91CF9108953FB7F8948091D5
:10023000330190913401A0913501B091360126B57A
:10024000A89B05C02F3F19F00196A11DB11D3FBF0E
:10025000BA2FA92F982F8827820F911DA11DB11D9C
:10026000BC01CD0142E0660F771F881F991F4A9598
:10027000D1F708958F929F92AF92BF92CF92DF9263
:10028000EF92FF926B017C010E9415014B015C0112
:10029000C114D104E104F104F1F00E941501DC0164
:1002A000CB0188199909AA09BB09883E9340A10589
:1002B000B10570F321E0C21AD108E108F10888EE17
:1002C000880E83E0981EA11CB11CC114D104E10466
:1002D000F10419F7DDCFFF90EF90DF90CF90BF9042
:1002E000AF909F908F900895CF93C82F61E00E94A8
:1002F0008C0064E670E080E090E00E943A0160E0EB
:100300008C2F0E948C0064E670E080E090E00E94F8
:100310003A0161E083E00E948C0064E670E080E0D6
:1003200090E00E943A0160E083E00E948C0064E665
:1003300070E080E090E0CF910C943A01CF92DF9290
:10034000EF92FF920F931F93CF93DF936C017A018B
:100350008B01C0E0D0E0CE15DF0581F0D8016D91B2
:100360008D01D601ED91FC910190F081E02DC60147
:100370000995892B11F02196EECF7E01C701DF91FF
:10038000CF911F910F91FF90EF90DF90CF90089544
:10039000089580E090E00895FC01538D448D252F51
:1003A00030E0842F90E0821B930B541710F0CF960F
:1003B000089501970895FC01918D828D981761F041
:1003C000828DDF01A80FB11D5D968C91928D9F5F8C
:1003D0009F73928F90E008958FEF9FEF0895FC0137
:1003E000918D828D981731F0828DE80FF11D858DEA
:1003F00090E008958FEF9FEF0895FC01918D228D7D
:10040000892F90E0805C9F4F821B91098F73992701
:10041000089587E391E00E94FD0121E0892B09F412
:1004200020E0822F0895FC01848DDF01A80FB11D0B
:10043000A35ABF4F2C91848D90E001968F7399271A
:10044000848FA689B7892C93A089B1898C918370F8
:1004500080648C93938D848D981306C00288F389F1
:10046000E02D80818F7D80830895EF92FF920F931E
:100470001F93CF93DF93EC0181E0888F9B8D8C8D50
:10048000981305C0E889F989808185FD26C0F62E7C
:100490000B8D10E00F5F1F4F0F731127E02E8C8D17
:1004A000E8120CC00FB607FCFACFE889F989808101
:1004B00085FFF5CFCE010E941302F1CF8B8DFE0197
:1004C000E80FF11DE35AFF4FF0829FB7F8940B8FAE
:1004D000EA89FB89808180620AC09FB7F894EE891F
:1004E000FF896083E889F9898081837080648083D3
:1004F0009FBF81E090E0DF91CF911F910F91FF901E
:10050000EF900895CF93DF93EC01888D8823C9F095
:10051000EA89FB89808185FD05C0A889B9898C910C
:1005200086FD0FC00FB607FCF5CF808185FFF2CFA7
:10053000A889B9898C9185FFEDCFCE010E94130265
:10054000E7CFDF91CF91089580E090E0892B29F0EB
:100550000E94090281110C9400000895009769F02F
:10056000FC0101900020E9F73197AF01481B590BBE
:10057000BC0187E391E00C949E0180E090E0089537
:100580008F929F92AF92BF92CF92DF92EF92FF92A3
:100590000F931F93CF93DF93CDB7DEB7A1970FB61D
:1005A000F894DEBF0FBECDBF6B017C0197FF2BC05F
:1005B0006DE287E391E00E9435028C012227332708
:1005C000A9012C193D094E095F0919A2CE01819696
:1005D0007C019AE0892E912CA12CB12CCA01B90181
:1005E000A50194010E946107605DF70162937F019C
:1005F000211531054105510589F7CF010E94AE0251
:10060000800F911F1DC09B01AC0119A28E010F5DCF
:100610001F4F8AE0C82ED12CE12CF12CCA01B90160
:10062000A70196010E946107605DF80162938F0146
:10063000211531054105510589F7CF010E94AE0210
:10064000A1960FB6F894DEBF0FBECDBFDF91CF915C
:100650001F910F91FF90EF90DF90CF90BF90AF90E0
:100660009F908F9008950E9489070F931F93CF93B7
:10067000DF93182FEB0160E00E948C0083E090E094
:100680000197F1F761E0812F0E948C0083E290E0F6
:100690000197F1F760E0812F0E948C00CE0199272D
:1006A000FC01E656FF4F6491FC01EA57FF4FE491CD
:1006B000F0E0EE0FFF1FE859FF4F8591949100E4A1
:1006C00012E42FE030E0462F0E94340461157105DA
:1006D0008105910539F0DC01CB010196A11DB11D09
:1006E000BF7003C080E090E0DC01BC01CD019595B6
:1006F0008795779567950E94D5062DEC3CEC48EEE2
:1007000051E40E942B060E949D0660932A0170937B
:100710002B0180932C0190932D01DF91CF911F919C
:100720000F9108951F920F920FB60F9211242F93DD
:100730003F938F939F93AF93BF9380912F0190919D
:100740003001A0913101B091320130912E0123E0AE
:10075000230F2D3720F40196A11DB11D05C026E8F9
:10076000230F0296A11DB11D20932E0180932F010E
:1007700090933001A0933101B09332018091330105
:1007800090913401A0913501B09136010196A11DDF
:10079000B11D8093330190933401A0933501B09340
:1007A0003601BF91AF919F918F913F912F910F9003
:1007B0000FBE0F901F9018951F920F920FB60F92B9
:1007C00011242F933F934F935F936F937F938F9356
:1007D0009F93AF93BF93EF93FF9387E391E00E94C2
:1007E0001302FF91EF91BF91AF919F918F917F91F4
:1007F0006F915F914F913F912F910F900FBE0F908E
:100800001F9018951F920F920FB60F9211242F93DD
:100810008F939F93EF93FF93E0914701F0914801ED
:100820008081E0914D01F0914E0182FD12C09081D6
:10083000809150018F5F8F7320915101821751F089
:10084000E0915001F0E0E95CFE4F958F80935001FC
:1008500001C08081FF91EF919F918F912F910F9017
:100860000FBE0F901F901895CF92DF92EF92FF92DC
:100870000F931F93E82FF92F05C00150110921098B
:10088000310961F1908196239417B9F305C00150A5
:1008900011092109310911F1908196239413F7CFA1
:1008A000C12CD12CE12CF12C0AC08FEFC81AD80A28
:1008B000E80AF80A0C151D052E053F0579F0808120
:1008C0008623841791F36C2D7D2D8E2D9F2D1F91E6
:1008D0000F91FF90EF90DF90CF90089560E070E06F
:1008E00080E090E01F910F91FF90EF90DF90CF900C
:1008F0000895789484B5826084BD84B5816084BD98
:1009000085B5826085BD85B5816085BD80916E00AD
:10091000816080936E0010928100809181008260DE
:10092000809381008091810081608093810080911B
:1009300080008160809380008091B100846080930A
:10094000B1008091B00081608093B00080917A0006
:10095000846080937A0080917A00826080937A002C
:1009600080917A00816080937A0080917A0080681B
:1009700080937A001092C100E0914701F091480104
:1009800082E08083E0914301F09144011082E09184
:100990004501F09146018FEC808310924F01E09168
:1009A0004B01F0914C0186E08083E0914901F09188
:1009B0004A01808180618083E0914901F0914A0180
:1009C000808188608083E0914901F0914A018081B3
:1009D00080688083E0914901F0914A0180818F7D98
:1009E000808361E08DE00E94D90061E08BE00E948D
:1009F000D90061E089E00E94D90061E087E00E94AF
:100A0000D90060E08CE00E94D90060E08AE00E949A
:100A1000D90060E088E00E94D90060E086E00E9492
:100A2000D90061E085E00E94D90061E084E00E9485
:100A3000D90061E083E00E94D9006CE070E08DE0B5
:100A400090E00E94350380912A0190912B01A091A2
:100A50002C01B0912D018093260190932701A09342
:100A60002801B09329016AE070E08BE090E00E94D9
:100A7000350380912A0190912B01A0912C01B09116
:100A80002D018093220190932301A0932401B09320
:100A9000250168E070E089E090E00E9435038091D4
:100AA0002A0190912B01A0912C01B0912D018093EE
:100AB0001E0190931F01A0932001B093210166E0D5
:100AC00070E087E090E00E94350380912A019091C8
:100AD0002B01A0912C01B0912D0180931A019093CC
:100AE0001B01A0931C01B0931D01809126019091E0
:100AF0002701A0912801B0912901883C9105A10509
:100B0000B1056CF08091220190912301A091240104
:100B1000B0912501883C9105A105B1052CF485E033
:100B200090E00E94740108C060E085E00E948C00A3
:100B300060E083E00E948C0080911E0190911F0173
:100B4000A0912001B091210184369105A105B10544
:100B50006CF080911A0190911B01A0911C01B09141
:100B60001D0184369105A105B1052CF484E090E0C7
:100B70000E94740108C060E084E00E948C0060E084
:100B800083E00E948C006091260170912701809182
:100B90002801909129010E94C00282E191E00E9407
:100BA000AE02609122017091230180912401909105
:100BB00025010E94C00282E191E00E94AE02609194
:100BC0001E0170911F0180912001909121010E94CE
:100BD000C00282E191E00E94AE0260911A01709120
:100BE0001B0180911C0190911D010E94C00286E1B1
:100BF00091E00E94AE020E94A4021FCFE7E3F1E061
:100C00001382128288EE93E0A0E0B0E084839583A3
:100C1000A683B78384E091E09183808385EC90E0A4
:100C20009587848784EC90E09787868780EC90E0B6
:100C3000918B808B81EC90E0938B828B82EC90E0A7
:100C4000958B848B86EC90E0978B868B118E128E21
:100C5000138E148E08950E943F060C9427070E945D
:100C6000200758F00E94190740F029F45F3F29F04F
:100C70000C94100751110C945B070C9416070E94FA
:100C8000380768F39923B1F3552391F3951B550B5E
:100C9000BB27AA2762177307840738F09F5F5F4F4F
:100CA000220F331F441FAA1FA9F335D00E2E3AF08E
:100CB000E0E832D091505040E695001CCAF72BD0A6
:100CC000FE2F29D0660F771F881FBB1F26173707F7
:100CD0004807AB07B0E809F0BB0B802DBF01FF2729
:100CE00093585F4F3AF09E3F510578F00C941007EF
:100CF0000C945B075F3FE4F3983ED4F386957795B9
:100D00006795B795F7959F5FC9F7880F911D9695E1
:100D1000879597F90895E1E0660F771F881FBB1F3D
:100D2000621773078407BA0720F0621B730B840BEA
:100D3000BA0BEE1F88F7E09508950E94A406689408
:100D4000B1110C945B0708950E94400788F09F57EB
:100D500098F0B92F9927B751B0F0E1F0660F771FDF
:100D6000881F991F1AF0BA95C9F714C0B13091F0D5
:100D70000E945A07B1E008950C945A07672F782F04
:100D80008827B85F39F0B93FCCF38695779567959A
:100D9000B395D9F73EF490958095709561957F4F06
:100DA0008F4F9F4F0895E89409C097FB3EF49095AC
:100DB0008095709561957F4F8F4F9F4F9923A9F034
:100DC000F92F96E9BB279395F695879577956795C3
:100DD000B795F111F8CFFAF4BB0F11F460FF1BC007
:100DE0006F5F7F4F8F4F9F4F16C0882311F096E99A
:100DF00011C0772321F09EE8872F762F05C0662348
:100E000071F096E8862F70E060E02AF09A95660F00
:100E1000771F881FDAF7880F9695879597F90895B9
:100E200097F99F6780E870E060E008959FEF80EC9D
:100E3000089500240A941616170618060906089540
:100E400000240A9412161306140605060895092EA6
:100E50000394000C11F4882352F0BB0F40F4BF2B15
:100E600011F460FF04C06F5F7F4F8F4F9F4F089555
:100E700057FD9058440F551F59F05F3F71F047954B
:100E8000880F97FB991F61F09F3F79F08795089530
:100E9000121613061406551FF2CF4695F1DF08C04F
:100EA000161617061806991FF1CF8695710561056C
:100EB00008940895E894BB2766277727CB0197F914
:100EC0000895A1E21A2EAA1BBB1BFD010DC0AA1F8B
:100ED000BB1FEE1FFF1FA217B307E407F50720F0A3
:100EE000A21BB30BE40BF50B661F771F881F991F1E
:100EF0001A9469F760957095809590959B01AC0167
:100F0000BD01CF010895EE0FFF1F0590F491E02D74
:100F1000099481E090E0F8940C948E07F894FFCF48
:100F20000000000035029E01CC018202FD01DB01C0
:0A0F3000EF01202D20000D0A000043
:00000001FF
